:100000000C9434000C9451000C9451000C94510049
:100010000C9451000C9451000C9451000C9451001C
:100020000C9451000C9451000C9451000C9451000C
:100030000C9451000C9451000C9451000C945100FC
:100040000C9451000C9451000C9451000C945100EC
:100050000C9451000C9451000C9451000C945100DC
:100060000C9451000C94510011241FBECFEFD8E026
:10007000DEBFCDBF11E0A0E0B1E0EEE9FCE002C0E0
:1000800005900D92AC3EB107D9F722E0ACEEB1E09D
:1000900001C01D92A132B207E1F70E949B040C94AB
:1000A0004D060C940000259A2D9A2FEF83ED90E3D6
:1000B000215080409040E1F700C000002D982FEFC4
:1000C00083ED90E3215080409040E1F700C00000B4
:1000D0000895ECEEF1E022E030E03183208386E009
:1000E00090E0938382833583248385E090E0978337
:1000F000868384E090E09387828731872087118A06
:10010000108A81E090E097878687958B848B938B0C
:10011000828B318F208F978B868B43E050E0558FF9
:10012000448F938F828F11A210A2178E168E95A3E3
:1001300084A313A212A231A720A717A216A255A723
:1001400044A713A612A69587848710AA97A786A707
:100150000895262F372F4130D9F521303105B1F0E0
:1001600020F02230310519F1089544B121E030E04A
:10017000B90102C0660F771F8A95E2F7CB01942F71
:10018000982B94B995B1892B85B9089547B121E091
:1001900030E0B90102C0660F771F8A95E2F7CB0104
:1001A000942F982B97B998B1892B88B908954AB1A3
:1001B00021E030E0B90102C0660F771F8A95E2F7AF
:1001C000CB01942F982B9AB99BB1892B8BB90895A9
:1001D00021303105B9F020F02230310529F10895A0
:1001E00044B121E030E0B90102C0660F771F8A9563
:1001F000E2F7CB01942F982B94B995B18095892380
:1002000085B9089547B121E030E0B90102C0660F19
:10021000771F8A95E2F7CB01942F982B97B998B165
:100220008095892388B908954AB121E030E0B90169
:1002300002C0660F771F8A95E2F7CB01942F982BA7
:100240009AB99BB1809589238BB9089590E002C03B
:10025000959587956A95E2F7817041305105E1F0F7
:1002600020F04230510579F1089594B141E050E019
:10027000022E02C0440F551F0A94E2F7942B94B942
:1002800035B190E002C0880F991F2A95E2F740959A
:100290004323842B85B9089597B141E050E0022EA5
:1002A00002C0440F551F0A94E2F7942B97B938B156
:1002B00090E002C0880F991F2A95E2F740954323EA
:1002C000842B88B908959AB141E050E0022E02C013
:1002D000440F551F0A94E2F7942B9AB93BB190E072
:1002E00002C0880F991F2A95E2F740954323842B7B
:1002F0008BB908950F931F93CF93DF932091F8014B
:100300003091F901232BC1F42091FA013091FB01C6
:100310002130310549F020F02230310549F01EC06E
:100320009FEF94B985B91AC09FEF97B988B916C0E5
:100330009FEF9AB988B912C0D82F0CEE11E0C0E037
:10034000F80120893189468557856C2F8D2F0E94B1
:1003500026010C5F1F4FCF5FC83091F7DF91CF911F
:100360001F910F9108950F931F93CF93DF93D62F73
:10037000CFB7C078F894882361F06091F401709150
:10038000F5018091F6019091F70141E00E94A900EA
:100390000BC06091F4017091F5018091F60190918C
:1003A000F70140E00E94A9000CEE11E0F801648121
:1003B00075818681978140E00E94A9008D2F0E945F
:1003C0007A0187EC90E00197F1F700C00000F80196
:1003D000608171818281938141E00E94A90087E55B
:1003E00092E00197F1F700C00000F801608171818F
:1003F0008281938140E00E94A90087EC90E0019700
:10040000F1F700C00000CC2309F07894EFE3F6E0A8
:100410003197F1F700C00000DF91CF911F910F914C
:1004200008950F931F93CF93DF93162F072F91E01B
:10043000811101C090E0CCEED1E098AB892F90E023
:10044000880F991F880F991F8860682F612B80E0A3
:100450000E94B3011EA70FA7DF91CF911F910F91AB
:1004600008958FE59AEE0197F1F700C0000068E368
:1004700080E00E94B3019FEF2FE183E09150204084
:100480008040E1F700C0000068E380E00E94B30113
:100490009FEF20E782E0915020408040E1F700C0CC
:1004A000000068E380E00E94B3019FEF29EF80E045
:1004B000915020408040E1F700C0000061E080E002
:1004C0000E94B30160E070E080E00E94110261E0F0
:1004D00080E00E94B3018FE39CE90197F1F700C02F
:1004E000000062E080E00E94B3018FE39CE9019785
:1004F000F1F700C00000089541305105F1F020F0FF
:100500004230510599F1089534B141E050E0022E96
:1005100002C0440F551F0A94E2F7742F70953723D9
:1005200034B9E5B1F0E04E235F23FA0102C0F5953E
:10053000E7952A95E2F79F0131C037B141E050E0DD
:10054000022E02C0440F551F0A94E2F7742F7095D3
:10055000372337B9E8B1F0E04E235F23FA0102C038
:10056000F595E7952A95E2F79F0118C03AB141E069
:1005700050E0022E02C0440F551F0A94E2F7742F78
:10058000709537233AB9EBB1F0E04E235F23FA01BF
:1005900002C0F595E7952A95E2F79F0130E0062E17
:1005A00002C0220F331F0A94E2F741E050E002C07C
:1005B000440F551F6A95E2F74095FC0130814323B3
:1005C000242B20830895EF92FF921F93CF93DF9304
:1005D0001F92CDB7DEB719828091F8019091F90191
:1005E000892BA1F48091FA019091FB018130910552
:1005F00039F018F0029739F022C014B885B120C044
:1006000017B888B11DC01AB88BB11AC00F2EFCEEF6
:10061000EF2EF1E0FF2EF02D10E0F7012089318957
:1006200046855785612FCE0101960E947C02F4E039
:10063000EF0EF11C1F5F183081F7898101C080E047
:100640000F90DF91CF911F91FF90EF900895CF927F
:10065000DF92EF92FF920F931F93CF93DF936C0182
:10066000162FC42F66E080E00E94B301C13099F5D7
:1006700060E880E00E94B301812F90E080559109ED
:100680001816190634F0111105C044C0C83221F4FF
:100690003CC010E57601C0E0F70161917F0181E087
:1006A0000E94B301CF5FC11788F3C83299F560EC9F
:1006B00080E00E94B301193268F1F8E2CF0ED11C3C
:1006C000C8E2F60161916F0181E00E94B301CF5F42
:1006D000C117B8F31FC060EC80E00E94B301812F06
:1006E00090E08897181619061CF0111102C012C06C
:1006F00018E20C2DCC2DDD2D699181E00E94B30113
:100700008C2F801B8117C0F305C060EC80E00E9435
:10071000B301D3CFDF91CF911F910F91FF90EF9055
:10072000DF90CF9008958F929F92AF92BF92CF9219
:10073000DF92EF92FF920F931F93CF93DF938C0181
:1007400062E080E00E94B3018FE39CE90197F1F73A
:1007500000C0000061E080E00E94B301AFE3BCE9AB
:100760001197F1F700C0000066E080E00E94B3013D
:1007700060E880E00E94B301F80142815381648106
:10078000758186819781A085B1856A017B01F0E141
:10079000CF0ED11CE11CF11C8C159D05AE05BF05CB
:1007A00010F46C017D01DC2DC42F4C1560F4D801D0
:1007B000ED91FC91EC0FF11D608181E00E94B3018D
:1007C000CF5FCD17A0F3DD24EE24FF24F801C28211
:1007D000D382E482F58286819781A085B185C8168F
:1007E000D906EA06FB06A1F160EC80E00E94B301A5
:1007F000D80112968D909D90AD90BC90159716964D
:100800008D919D910D90BC91A02DE0E18E0E911CDB
:10081000A11CB11C88159905AA05BB0510F44C0153
:100820005D01C82DC81460F4D801ED91FC91EC0D68
:10083000F11D608181E00E94B301C394CC16A0F346
:100840009924AA24BB24F80182829382A482B582CF
:10085000DF91CF911F910F91FF90EF90DF90CF909C
:10086000BF90AF909F908F900895CF93C82F613025
:1008700041F4493298F46FE7640F80E00E94B301BD
:1008800009C0623059F4493248F46FEB640F80E0DC
:100890000E94B3016C2F81E00E94B301CF910895B3
:1008A000FF920F931F93CF93DF93EC0162E080E000
:1008B0000E94B3018FE39CE90197F1F700C00000AB
:1008C00061E080E00E94B3018FE39CE90197F1F7BA
:1008D00000C00000C436D10554F083E090E00E94CF
:1008E000EB048C010F2EF3E0FF2EF02D13C0CA3065
:1008F000D1054CF082E090E00E94EB048C016894FA
:10090000FF24F1F807C081E090E00E94EB048C0125
:10091000FF24F3944AE0B801CE010E94180620E0BB
:1009200041E06F2DC8010E942703DF91CF911F91F5
:100930000F91FF900895CF93DF93CDB7DEB72A973D
:100940000FB6F894DEBF0FBECDBF0E9469000E94B3
:1009500053000E94310261E070E081E00E941102C8
:1009600086E091E09A8389831B821C821D821E820D
:1009700085EE90E0A0E0B0E08F839887A987BA87E2
:1009800040E050E0BA01841B950B0E9450042FEF09
:1009900083ED90E3215080409040E1F700C00000DB
:1009A000CE0101960E9493032FEF87EA91E6215032
:1009B00080409040E1F700C000008F819885A985B4
:1009C000BA854B815C816D817E8184179507A6076E
:1009D000B707C9F6FFCFCF93DF938230910510F4AC
:1009E00082E090E0E0911F02F091200220E030E0F0
:1009F000C0E0D0E0309711F140815181481759078C
:100A0000C0F04817590761F482819381209719F04B
:100A10009B838A832BC09093200280931F0226C061
:100A20002115310519F04217530718F49A01BE0138
:100A3000DF01EF010280F381E02DDCCF21153105CC
:100A400009F1281B390B2430310590F412968D9151
:100A50009C9113976115710521F0FB0193838283AB
:100A600004C09093200280931F02FD01329644C07F
:100A7000FD01E20FF31F81939193225031092D93D1
:100A80003C933AC020911D0230911E02232B41F469
:100A9000209102013091030130931E0220931D0228
:100AA00020910001309101012115310541F42DB74C
:100AB0003EB74091040150910501241B350BE09194
:100AC0001D02F0911E02E217F307A0F42E1B3F0B4C
:100AD0002817390778F0AC014E5F5F4F24173507B0
:100AE00048F04E0F5F1F50931E0240931D028193EA
:100AF000919302C0E0E0F0E0CF01DF91CF91089543
:100B00000F931F93CF93DF93009709F48CC0FC01E0
:100B100032971382128200911F0210912002011558
:100B2000110581F420813181820F931F20911D02D4
:100B300030911E022817390779F5F0931E02E093D1
:100B40001D0271C0D80140E050E0AE17BF0750F45D
:100B500012962D913C911397AD012115310509F1A4
:100B6000D901F3CF9D01DA01338322836081718142
:100B7000860F971F8217930769F4EC01288139814A
:100B8000260F371F2E5F3F4F318320838A819B8141
:100B900093838283452B29F4F0932002E0931F0274
:100BA00042C01396FC93EE931297ED01499159912F
:100BB0009E01240F351FE217F30771F480819181A4
:100BC000840F951F029611969C938E938281938138
:100BD00013969C938E931297E0E0F0E0D801129662
:100BE0008D919C911397009719F0F8018C01F6CF25
:100BF0008D919C9198012E5F3F4F820F931F209102
:100C00001D0230911E022817390769F4309729F424
:100C10001092200210921F0202C0138212821093BF
:100C20001E0200931D02DF91CF911F910F91089535
:100C3000BB274A3031F4992322F4BDE29095819587
:100C40009F4F0C942406BB27FB015527AA27880F2A
:100C5000991FAA1FA41710F0A41B83955051B9F730
:100C6000A05DAA3308F0A95DA193009779F7B111AF
:100C7000B1931192CB010C943D06DC01FC01672F6E
:100C800071917723E1F7329704C07C916D93708363
:0E0C90006291AE17BF07C8F30895F894FFCF26
:100C9E00000021022000496E20636F6D707574652F
:100CAE0072207573657220696E7465726661636514
:100CBE00732C206120637572736F722069732061CB
:100CCE006E20696E64696361746F722075736564FA
:100CDE0020746F2073686F77207468652063757257
:100CEE0072656E7420706F736974696F6E20666FB3
:100CFE0072207573657220696E74657261637469B2
:100D0E006F6E206F6E206120636F6D7075746572EB
:100D1E00206D6F6E69746F72206F72206F746865CC
:100D2E007220646973706C6179206465766963659D
:100D3E0020746861742077696C6C20726573706FB3
:100D4E006E6420746F20696E7075742066726F6D9C
:100D5E002061207465787420696E707574206F72CE
:100D6E0020706F696E74696E67206465766963655D
:0C0D7E002E20546865206D6F75736500B1
:00000001FF
