:100000000C9434000C9455000C9446000C9446005B
:100010000C9446000C9446000C9446000C94460048
:100020000C9446000C9446000C9446000C94460038
:100030000C9446000C9446000C9446000C94460028
:100040000C9446000C9446000C9446000C94460018
:100050000C9446000C9446000C9446000C94460008
:100060000C9446000C94460011241FBECFEFD8E03C
:10007000DEBFCDBF21E0A0E0B1E001C01D92A630FF
:10008000B207E1F70E947D000C94EE000C94000092
:10009000249A2C9A2FEF83ED90E3215080409040DA
:1000A000E1F700C000002C9808951F920F920FB640
:1000B0000F9211242F933F934F935F936F937F93EE
:1000C0008F939F93AF93BF93EF93FF930E9448004A
:1000D00080E091E00E94D100FF91EF91BF91AF913C
:1000E0009F918F917F916F915F914F913F912F9150
:1000F0000F900FBE0F901F90189563E070E080E0A6
:1001000091E00E948F0080E091E00E94C20060E0D8
:1001100070E080E091E00E94A6007894FFCFFC019F
:10012000718360838FE090E09383828381E090E02D
:10013000958384830895FC01A9E6B0E09C918081B9
:100140008623892B8C9362837383089561157105CF
:1001500061F4FC01208131812330310519F452987A
:10016000E89A0CC05398E99A09C0FC0120813181BA
:100170002330310511F4E89801C0E998FC0175833A
:1001800064830895CF93DF93EC016A817B810E94A1
:100190009B006C817D81CE010E94A600DF91CF91F2
:1001A0000895FC0180819181039719F481E08CBB53
:1001B000089582E08CBB0895FC01808191810397B2
:1001C00031F49CB381E08927817090E008958CB36D
:1001D000869591E08927817090E00895F894FFCF8B
:00000001FF
