:100000000C943B000C9458000C9458000C9458002D
:100010000C9458000C9458000C9458000C94580000
:100020000C9458000C9458000C9458000C945800F0
:100030000C9458000C9458000C9458000C945800E0
:100040000C9458000C9470000C9458000C945800B8
:100050000C9458000C9458000C9458000C945800C0
:100060000C9458000C945800000207020E0218026B
:1000700022022C02330211241FBECFEFD8E0DEBFD4
:10008000CDBF11E0A0E0B1E0ECE3F8E002C00590E4
:100090000D92A430B107D9F721E0A4E0B1E001C08E
:1000A0001D92A133B207E1F70E94AD000C941C042D
:1000B0000C940000559A5D9A2FEF83ED90E3215048
:1000C00080409040E1F700C000005D982FEF83ED85
:1000D00090E3215080409040E1F700C00000089577
:1000E0001F920F920FB60F9211242F933F934F93AD
:1000F0005F936F937F938F939F93AF93BF93EF9390
:10010000FF93CF93DF9300D01F92CDB7DEB763E0AC
:10011000CE0101960E940A048981823141F48A81CC
:10012000863329F48B81813111F40E945A000F909B
:100130000F900F90DF91CF91FF91EF91BF91AF9111
:100140009F918F917F916F915F914F913F912F91EF
:100150000F900FBE0F901F9018950E94C1000E9433
:10016000020381E090E00E94D5020E945A00789438
:1001700080E090E00E94B20180E090E00E94C00127
:10018000FFCFE4E0F1E081E090E09283818321E021
:1001900020831482138222E030E03683258394A3E7
:1001A00083A316A215A210A617A212A611A694A7A1
:1001B00083A70895613009F069C090E0FC01EE0F5B
:1001C000FF1FEE0FFF1FEC5FFE4F238134812130B4
:1001D000310511F120F022303105D9F1089544B1F3
:1001E000880F991F880F991FFC01EC5FFE4F81E07B
:1001F00090E09C01058002C0220F331F0A94E2F7B1
:10020000242B24B925B1058002C0880F991F0A94B8
:10021000E2F7822B85B9089547B1880F991F880F9F
:10022000991FFC01EC5FFE4F81E090E09C0105808E
:1002300002C0220F331F0A94E2F7242B27B928B1FA
:10024000058002C0880F991F0A94E2F7822B88B9B3
:1002500008954AB1880F991F880F991FFC01EC5F20
:10026000FE4F81E090E09C01058002C0220F331F09
:100270000A94E2F7242B2AB92BB1058002C0880F1B
:10028000991F0A94E2F7822B8BB9089590E0FC0144
:10029000EE0FFF1FEE0FFF1FEC5FFE4F2381348137
:1002A0002130310519F120F022303105E9F10895AE
:1002B00044B1880F991F880F991FFC01EC5FFE4F16
:1002C00081E090E09C01058002C0220F331F0A9458
:1002D000E2F7242B24B925B1058002C0880F991FAD
:1002E0000A94E2F78095822385B9089547B1880F73
:1002F000991F880F991FFC01EC5FFE4F81E090E091
:100300009C01058002C0220F331F0A94E2F7242BC0
:1003100027B928B1058002C0880F991F0A94E2F717
:100320008095822388B908954AB1880F991F880F54
:10033000991FFC01EC5FFE4F81E090E09C0105807D
:1003400002C0220F331F0A94E2F7242B2AB92BB1E3
:10035000058002C0880F991F0A94E2F780958223D6
:100360008BB90895009721F42CB520642CBD03C0EF
:100370002CB52F7B2CBD9093060180930501089529
:10038000009721F42CB520682CBD03C02CB52F7725
:100390002CBD909328018093270108958130910509
:1003A00061F038F08230910579F08330910599F051
:1003B00016C02CB5237F2CBD15C02CB5277F2CBDB6
:1003C0002CB524602CBD0EC02CB528602CBD2CB5DE
:1003D0002B7F2CBD07C02CB52C602CBD03C02CB5C9
:1003E000237F2CBD90932A018093290108958730A3
:1003F000910508F03FC0FC01EC5CFF4F0C94160423
:100400002DB521602DBD2CB52C7F2CBD39C02DB54F
:100410002E7F2DBD2CB52C7F2CBD32C02DB521607B
:100420002DBD2CB521602CBD2CB52D7F2CBD28C039
:100430002DB52E7F2DBD2CB521602CBD2CB52D7F6B
:100440002CBD1EC02DB521602DBD2CB52E7F2CBD21
:100450002CB522602CBD14C02DB521602DBD2CB54E
:1004600023602CBD0DC02DB52E7F2DBD2CB5236076
:100470002CBD06C02DB52E7F2DBD2CB52C7F2CBDDF
:100480009093300180932F010895009721F42CB5AB
:100490002F7D2CBD03C02CB520622CBD90932E0166
:1004A00080932D010895EF92FF920F931F93CF93A6
:1004B000DF93693008F068E0E62EF12C1E141F046B
:1004C0000CF06CC0DC01FC0140E050E001E010E009
:1004D0002081318121303105D1F020F022303105E9
:1004E00059F13EC074B19801028002C0220F331F3F
:1004F0000A94E2F7272B24B975B19801028002C053
:10050000220F331F0A94E2F7272B25B929C077B1B0
:100510009801028002C0220F331F0A94E2F7272BB2
:1005200027B978B19801028002C0220F331F0A94C4
:10053000E2F7272B28B914C07AB19801028002C0D3
:10054000220F331F0A94E2F7272B2AB97BB19801B7
:10055000028002C0220F331F0A94E2F7272B2BB927
:100560004F5F5F4F34964E155F0509F0B1CFE4E061
:10057000F1E024E0629F800D911D11242D913C91AA
:1005800011973483238312962D913C9113973683D0
:10059000258314963496A817B90781F7DF91CF9178
:1005A0001F910F91FF90EF9008950F931F93CF939A
:1005B000DF93EC01892BB1F48CB580618CBD04E034
:1005C00011E0F80183A594A50E94F701F80160816C
:1005D00087E091E00E94530284B18C6284B9249830
:1005E0002A9A07C09CB59F7E9CBD249A94B1937DA6
:1005F00094B9D0932C01C0932B01DF91CF911F911F
:100600000F910895CF93DF93C4E0D1E089819A815F
:100610000E94B2018FA198A50E94D5028BA19CA136
:100620000E94C0018DA19EA10E94CE0189A59AA51C
:100630000E944502DF91CF9108950DB407FC8EB55D
:1006400080E008958EBD0DB407FEFDCF8EB50895F0
:100650008EB50895CF93DF93C82FD62F60E00E9408
:10066000DA00DEBD0DB407FEFDCFDEB561E08C2FF4
:100670000E94DA008D2FDF91CF9108951F93CF93C1
:10068000DF93C82F162FD42F60E00E94DA001EBD22
:100690000DB407FEFDCF8EB5DEBD0DB407FEFDCF58
:1006A000DEB561E08C2F0E94DA008D2FDF91CF91B3
:1006B0001F9108950F931F93CF93DF93182FEB0192
:1006C000042F60E00E94DA00FE01BE01600F711D80
:1006D00005C091919EBD0DB407FEFDCFE617F7074B
:1006E000C1F761E0812F0E94DA00DF91CF911F9165
:1006F0000F9108950F931F93CF93DF93C82F062F69
:10070000172FD42F60E00E94DA009FEF9D0FDD23AA
:1007100059F0E02FF12F3FEF3EBD0DB407FEFDCFA6
:100720002EB521939150C0F761E08C2F0E94DA0022
:10073000DF91CF911F910F910895EF92FF920F9348
:100740001F93CF93DF93D82FE62EF42E152FC22FB1
:1007500060E00E94DA00EEBC0DB407FEFDCF9FEF13
:100760009C0FCC2359F0EF2DF12F4FEF4EBD0DB460
:1007700007FEFDCF3EB531939150C0F7091B9FEFA7
:1007800004C09EBD0DB407FEFDCF0150D0F761E05F
:100790008D2F0E94DA008C2FDF91CF911F910F9146
:1007A000FF90EF900895EF92FF920F931F93CF93D6
:1007B000DF93182FE62EEA01F22E021B60E00E9462
:1007C000DA00EEBC0DB407FEFDCFEEB4FE01AE01C3
:1007D0004F0D511D05C091919EBD0DB407FEFDCF7B
:1007E000E417F507C1F79FEF04C09EBD0DB407FEE7
:1007F000FDCF0150D0F761E0812F0E94DA008E2DED
:10080000DF91CF911F910F91FF90EF9008958DB5DB
:1008100080780895FC010DB407FE04C08EB5808376
:10082000615031966111F7CF80E00895EE0FFF1F00
:0C0830000590F491E02D0994F894FFCF9E
:04083C00123611005F
:00000001FF
