:100000000C943B000C944D000C944D000C944D004E
:100010000C944D000C944D000C944D000C944D002C
:100020000C944D000C944D000C944D000C944D001C
:100030000C944D000C944D000C944D000C944D000C
:100040000C944D000C944D000C944D000C944D00FC
:100050000C944D000C944D000C944D000C944D00EC
:100060000C944D000C944D00B301BA01C101CB01B9
:10007000D501DF01E60111241FBECFEFD8E0DEBFBE
:10008000CDBF21E0A0E0B1E001C01D92AD32B207CA
:10009000E1F70E944F000C94CF030C940000CF9323
:1000A000DF9300D01F92CDB7DEB70E9474000E948C
:1000B000B50280E090E00E94650182E1898386E3D9
:1000C0008A8381E18B832FEF83ED90E32150804081
:1000D0009040E1F700C0000043E0BE016F5F7F4F3A
:1000E00080E00E940D03EFCFE0E0F1E081E090E0DE
:1000F0009283818321E020831482138222E030E006
:100100003683258394A383A316A215A210A617A253
:1001100012A611A694A783A70895613009F069C0BB
:1001200090E0FC01EE0FFF1FEE0FFF1FE050FF4FAE
:10013000238134812130310511F120F02230310545
:10014000D9F1089544B1880F991F880F991FFC01B8
:10015000E050FF4F81E090E09C01058002C0220F3B
:10016000331F0A94E2F7242B24B925B1058002C07D
:10017000880F991F0A94E2F7822B85B9089547B139
:10018000880F991F880F991FFC01E050FF4F81E0F5
:1001900090E09C01058002C0220F331F0A94E2F711
:1001A000242B27B928B1058002C0880F991F0A9413
:1001B000E2F7822B88B908954AB1880F991F880FFA
:1001C000991FFC01E050FF4F81E090E09C01058009
:1001D00002C0220F331F0A94E2F7242B2AB92BB155
:1001E000058002C0880F991F0A94E2F7822B8BB911
:1001F000089590E0FC01EE0FFF1FEE0FFF1FE0508F
:10020000FF4F238134812130310519F120F0223054
:100210003105E9F1089544B1880F991F880F991F9E
:10022000FC01E050FF4F81E090E09C01058002C09E
:10023000220F331F0A94E2F7242B24B925B105803D
:1002400002C0880F991F0A94E2F78095822385B92E
:10025000089547B1880F991F880F991FFC01E0503E
:10026000FF4F81E090E09C01058002C0220F331F08
:100270000A94E2F7242B27B928B1058002C0880F21
:10028000991F0A94E2F78095822388B908954AB1AC
:10029000880F991F880F991FFC01E050FF4F81E0E4
:1002A00090E09C01058002C0220F331F0A94E2F700
:1002B000242B2AB92BB1058002C0880F991F0A94FC
:1002C000E2F7809582238BB90895009721F42CB52D
:1002D00020642CBD03C02CB52F7B2CBD9093020154
:1002E000809301010895009721F42CB520682CBD5E
:1002F00003C02CB52F772CBD90932401809323014C
:1003000008958130910561F038F08230910579F0DF
:100310008330910599F016C02CB5237F2CBD15C0F4
:100320002CB5277F2CBD2CB524602CBD0EC02CB560
:1003300028602CBD2CB52B7F2CBD07C02CB52C60A4
:100340002CBD03C02CB5237F2CBD90932601809338
:10035000250108958730910508F03FC0FC01EC5C51
:10036000FF4F0C94C9032DB521602DBD2CB52C7FFA
:100370002CBD39C02DB52E7F2DBD2CB52C7F2CBDAD
:1003800032C02DB521602DBD2CB521602CBD2CB502
:100390002D7F2CBD28C02DB52E7F2DBD2CB5216005
:1003A0002CBD2CB52D7F2CBD1EC02DB521602DBDC3
:1003B0002CB52E7F2CBD2CB522602CBD14C02DB5C4
:1003C00021602DBD2CB523602CBD0DC02DB52E7F19
:1003D0002DBD2CB523602CBD06C02DB52E7F2DBDA7
:1003E0002CB52C7F2CBD90932C0180932B0108956C
:1003F000009721F42CB52F7D2CBD03C02CB52062B5
:100400002CBD90932A01809329010895EF92FF92C9
:100410000F931F93CF93DF93693008F068E0E62EC7
:10042000F12C1E141F040CF06CC0DC01FC0140E038
:1004300050E001E010E02081318121303105D1F020
:1004400020F02230310559F13EC074B1980102808C
:1004500002C0220F331F0A94E2F7272B24B975B18B
:100460009801028002C0220F331F0A94E2F7272B63
:1004700025B929C077B19801028002C0220F331F2D
:100480000A94E2F7272B27B978B19801028002C0BD
:10049000220F331F0A94E2F7272B28B914C07AB130
:1004A0009801028002C0220F331F0A94E2F7272B23
:1004B0002AB97BB19801028002C0220F331F0A942F
:1004C000E2F7272B2BB94F5F5F4F34964E155F0530
:1004D00009F0B1CFE0E0F1E024E0629F800D911DD2
:1004E00011242D913C9111973483238312962D91E1
:1004F0003C9113973683258314963496A817B90731
:1005000081F7DF91CF911F910F91FF90EF900895A8
:100510000F931F93CF93DF93EC01892BB1F48CB52C
:1005200080618CBD00E011E0F80183A594A50E94D4
:10053000AA01F801608183E091E00E94060284B183
:100540008C6284B924982A9A07C09CB59F7E9CBD72
:10055000249A94B1937D94B9D0932801C093270134
:10056000DF91CF911F910F910895CF93DF93C0E05A
:10057000D1E089819A810E9465018FA198A50E948E
:1005800088028BA19CA10E9473018DA19EA10E9453
:10059000810189A59AA50E94F801DF91CF91089564
:1005A0000DB407FC8EB580E008958EBD0DB407FE36
:1005B000FDCF8EB508958EB50895CF93DF93C82FE4
:1005C000D62F60E00E948D00DEBD0DB407FEFDCF8A
:1005D000DEB561E08C2F0E948D008D2FDF91CF91D1
:1005E00008951F93CF93DF93C82F162FD42F60E069
:1005F0000E948D001EBD0DB407FEFDCF8EB5DEBD81
:100600000DB407FEFDCFDEB561E08C2F0E948D009A
:100610008D2FDF91CF911F9108950F931F93CF934B
:10062000DF93182FEB01042F60E00E948D00FE0184
:10063000BE01600F711D05C091919EBD0DB407FEF6
:10064000FDCFE617F707C1F761E0812F0E948D000B
:10065000DF91CF911F910F9108950F931F93CF9327
:10066000DF93C82F062F172FD42F60E00E948D0034
:100670009FEF9D0FDD2359F0E02FF12F3FEF3EBD9F
:100680000DB407FEFDCF2EB521939150C0F761E068
:100690008C2F0E948D00DF91CF911F910F910895B3
:1006A000EF92FF920F931F93CF93DF93D82FE62EF5
:1006B000F42E152FC22F60E00E948D00EEBC0DB409
:1006C00007FEFDCF9FEF9C0FCC2359F0EF2DF12FAC
:1006D0004FEF4EBD0DB407FEFDCF3EB531939150A7
:1006E000C0F7091B9FEF04C09EBD0DB407FEFDCFF0
:1006F0000150D0F761E08D2F0E948D008C2FDF918B
:10070000CF911F910F91FF90EF900895EF92FF927C
:100710000F931F93CF93DF93182FE62EEA01F22E4B
:10072000021B60E00E948D00EEBC0DB407FEFDCF01
:10073000EEB4FE01AE014F0D511D05C091919EBD5D
:100740000DB407FEFDCFE417F507C1F79FEF04C016
:100750009EBD0DB407FEFDCF0150D0F761E0812FA3
:100760000E948D008E2DDF91CF911F910F91FF90F0
:10077000EF9008958DB580780895FC010DB407FEC3
:1007800004C08EB58083615031966111F7CF80E04F
:100790000895EE0FFF1F0590F491E02D0994F89451
:0207A000FFCF89
:00000001FF
