:100000000C943B000C944D000C944D000C944D004E
:100010000C944D000C944D000C944D000C944D002C
:100020000C944D000C944D000C944D000C944D001C
:100030000C944D000C944D000C944D000C944D000C
:100040000C944D000C9465000C944D000C944D00E4
:100050000C944D000C944D000C944D000C944D00EC
:100060000C944D000C944D00D300DA00E100EB003D
:10007000F500FF00060111241FBECFEFD8E0DEBF60
:10008000CDBF21E0A0E0B1E001C01D92AF33B207C7
:10009000E1F70E949E000C9452030C940000389AE1
:1000A000409A2FEF81EE94E0215080409040E1F79C
:1000B00000C0000040982FEF83EC99E02150804071
:1000C0009040E1F700C0000008951F920F920FB614
:1000D0000F9211242F933F934F935F936F937F93CE
:1000E0008F939F93AF93BF93EF93FF932EB52A30D7
:1000F00039F40E944F0010920101109200010DC0CE
:100100008091000190910101FC01EE5FFE4F208380
:1001100001969093010180930001FF91EF91BF91AF
:10012000AF919F918F917F916F915F914F913F918F
:100130002F910F900FBE0F901F9018950E94B20044
:1001400081E090E090933A01809339010E9462012E
:1001500078948CB580688CBD8CB580648CBD0E9411
:100160004F00FFCFE6E1F1E012A211A214A213A208
:1001700016A215A281E090E090A787A3108226E343
:1001800031E083E090E0928381833496E217F307B5
:10019000D1F708958730910508F03FC0FC01EC5C71
:1001A000FF4F0C944C032DB521602DBD2CB52C7F39
:1001B0002CBD39C02DB52E7F2DBD2CB52C7F2CBD6F
:1001C00032C02DB521602DBD2CB521602CBD2CB5C4
:1001D0002D7F2CBD28C02DB52E7F2DBD2CB52160C7
:1001E0002CBD2CB52D7F2CBD1EC02DB521602DBD85
:1001F0002CB52E7F2CBD2CB522602CBD14C02DB586
:1002000021602DBD2CB523602CBD0DC02DB52E7FDA
:100210002DBD2CB523602CBD06C02DB52E7F2DBD68
:100220002CB52C7F2CBD90933E0180933D01089509
:10023000CF93DF93EC01892B71F48CB580618CBD79
:1002400080913D0190913E010E94CA0084B1886274
:1002500084B9249807C09CB59F7E9CBD249A94B114
:10026000937D94B9D0933A01C0933901DF91CF9136
:1002700008958130910561F038F08230910579F070
:100280008330910599F016C02CB5237F2CBD15C085
:100290002CB5277F2CBD2CB524602CBD0EC02CB5F1
:1002A00028602CBD2CB52B7F2CBD07C02CB52C6035
:1002B0002CBD03C02CB5237F2CBD909338018093B7
:1002C000370108951F93CF93DF931FB7C6E1D1E0A5
:1002D0008BA19CA10E94180189A19AA10E943901B9
:1002E0008DA19EA1892B21F48CB58F7D8CBD03C07F
:1002F0008CB580628CBD8CB58F778CBD1FBFDF91B4
:10030000CF911F910895AC0190911601292F30E0F3
:10031000D90118962A173B070CF06CC0292F2770BB
:10032000E22FF0E0EE0FFF1FEE0FFF1FEA5EFE4F21
:100330000180F281E02D339731F50FC0292F27700E
:10034000E22FF0E0EE0FFF1FEE0FFF1FEA5EFE4F01
:100350000180F281E02D3397B1F420931601E22F52
:10036000F0E0EE0FFF1FEE0FFF1FEA5EFE4F52831D
:1003700041836383748341305105E1F060F0423082
:10038000510539F134C09F5F292F30E02A173B0710
:10039000ACF288E0089524B181E090E002C0880FBB
:1003A000991F6A95E2F7922F982B94B995B1892BF2
:1003B00085B91DC027B181E090E002C0880F991F68
:1003C0006A95E2F7922F982B97B998B1892B88B943
:1003D0000EC02AB181E090E002C0880F991F6A9593
:1003E000E2F7922F982B9AB99BB1892B8BB9809108
:1003F0001601089588E00895883060F4E82FF0E051
:10040000EE0FFF1FEE0FFF1FEA5EFE4F83E090E04E
:1004100092838183089590E0FC01EE0FFF1FEE0FA1
:10042000FF1FEA5EFE4F218132812330310509F43E
:10043000DDC0613009F071C0EFECF7E03197F1F702
:1004400000C00000FC01EE0FFF1FEE0FFF1FEA5E71
:10045000FE4F218132812130310519F120F0223007
:100460003105E9F1C5C044B1880F991F880F991F64
:10047000FC01EA5EFE4F21E030E0C901038002C0CA
:10048000880F991F0A94E2F7842B84B985B1038001
:1004900002C0220F331F0A94E2F7282B25B981E00E
:1004A000089547B1880F991F880F991FFC01EA5ED4
:1004B000FE4F21E030E0C901038002C0880F991F80
:1004C0000A94E2F7842B87B988B1038002C0220F17
:1004D000331F0A94E2F7282B28B981E008954AB126
:1004E000880F991F880F991FFC01EA5EFE4F21E0DB
:1004F00030E0C901038002C0880F991F0A94E2F717
:10050000842B8AB98BB1038002C0220F331F0A9457
:10051000E2F7282B2BB981E008952130310519F13C
:1005200020F022303105E9F159C044B1880F991FFC
:10053000880F991FFC01EA5EFE4F21E030E0C901FF
:10054000038002C0880F991F0A94E2F7842B84B9B4
:1005500085B1038002C0220F331F0A94E2F7209571
:10056000282325B93BC047B1880F991F880F991FD1
:10057000FC01EA5EFE4F21E030E0C901038002C0C9
:10058000880F991F0A94E2F7842B87B988B10380FA
:1005900002C0220F331F0A94E2F72095282328B9BE
:1005A0001DC04AB1880F991F880F991FFC01EA5E90
:1005B000FE4F81E090E09C01038002C0220F331FB8
:1005C0000A94E2F7242B2AB92BB1038002C0880FCA
:1005D000991F0A94E2F7809582238BB98FEC97E0FC
:1005E0000197F1F700C0000081E008958FEF0895B2
:1005F00081E008950DB407FC8EB580E008958DB5B7
:1006000080780895FF920F931F93CF93DF93F82E76
:100610008B01EA01209729F160E00E940B02F801AA
:1006200080818EBD219799F0D80111969E018AE6AE
:100630008A95F1F700C05D910DB407FEFDCF9EB520
:100640005EBD91932150310991F70C0F1D1F0DB420
:1006500007FEFDCF8EB5F801808361E08F2D0E94EB
:100660000B02DF91CF911F910F91FF900895CF93CF
:10067000DF93C82FD62F60E00E940B02DEBD000082
:100680000DB407FEFDCFDEB561E08C2F0E940B029A
:100690008D2FDF91CF910895EE0FFF1F0590F491FC
:0806A000E02D0994F894FFCF4E
:00000001FF
