:100000000C9434000C9469000C949B000C944900EF
:100010000C9449000C9449000C9449000C9449003C
:100020000C9449000C9449000C9449000C9449002C
:100030000C9449000C9449000C9449000C9449001C
:100040000C9449000C9449000C9449000C9449000C
:100050000C9449000C9449000C9449000C944900FC
:100060000C9449000C94490011241FBECFEFD8E036
:10007000DEBFCDBF11E0A0E0B1E0EAEEF1E002C0EA
:1000800005900D92A230B107D9F70E94DC000C94C4
:10009000F3000C940000181619066CF420E030E010
:1000A000EFE9FFE03197F1F700C000002F5F3F4F0D
:1000B00028173907A9F70895CF93DF93EC012C9AFD
:1000C0000E944B002C98CE010E944B00DF91CF91F3
:1000D000089578941F920F920FB60F9211242F93C8
:1000E0003F934F935F936F937F938F939F93AF93C0
:1000F000BF93CF93DF93EF93FF93C4E6D0E080915B
:100100000001909101010E945C00E09A2197B9F7EB
:10011000FF91EF91DF91CF91BF91AF919F918F911F
:100120007F916F915F914F913F912F910F900FBEF3
:100130000F901F9018951F920F920FB60F921124D7
:100140002F933F934F935F936F937F938F939F93DF
:10015000AF93BF93EF93FF9382E390E00E945C0024
:1001600082E390E00E945C00E19A8091000190910E
:1001700001019595879590930101809300018091ED
:10018000000190910101C29734F480ED97E09093C3
:10019000010180930001FF91EF91BF91AF919F9179
:1001A0008F917F916F915F914F913F912F910F9020
:1001B0000FBE0F901F901895249A8AB1837F8AB939
:1001C000E9E6F0E080818F6080838DB383608DBB32
:1001D00078942FEF83ED90E3215080409040E1F739
:0A01E00000C00000FFCFF894FFCF2D
:0201EA00D0073C
:00000001FF
