:100000000C9434000C9451000C9451000C94510049
:100010000C9451000C9451000C9451000C9451001C
:100020000C9451000C9451000C9451000C9451000C
:100030000C9451000C9451000C9451000C945100FC
:100040000C9451000C9451000C9451000C945100EC
:100050000C9451000C9451000C9451000C945100DC
:100060000C9451000C94510011241FBECFEFD8E026
:10007000DEBFCDBF11E0A0E0B1E0ECE8F3E002C0EC
:1000800005900D92A830B107D9F721E0A8E0B1E0C2
:1000900001C01D92A031B207E1F70E948D010C94BE
:1000A000C4010C940000E8E0F1E087E690E0918361
:1000B000808388E0828382E083831482158281E0DA
:1000C00090E0978386830895E1ECF0E090819F7142
:1000D000982B908380930D010895E1ECF0E09081DE
:1000E000977E982B908380930C010895873011F1AF
:1000F00028F4853041F0863089F03EC0883031F1F7
:10010000893079F139C0E2ECF0E09081997F9083F9
:10011000E1ECF0E090819B7F908339C0E2ECF0E06D
:100120009081997F92609083E1ECF0E090819B7FD9
:1001300090832DC0E2ECF0E09081997F94609083F1
:10014000E1ECF0E090819B7F908321C0E2ECF0E055
:10015000908196609083E1ECF0E090819B7F9083AA
:1001600016C0E2ECF0E0908196609083E1ECF0E064
:100170009081946090830BC0E2ECF0E08081866017
:100180008083E1ECF0E080818B7F808388E0809346
:100190000A0108958130910529F058F082309105C7
:1001A00071F013C0E2ECF0E020812F7C206220830C
:1001B00014C0E2ECF0E02081206320830EC0E2EC6A
:1001C000F0E020812F7C208308C0E2ECF0E0808109
:1001D0008F7C8062808381E090E090930F01809318
:1001E0000E010895813031F4E2ECF0E09081977FC8
:1001F000908306C0E2ECF0E080818860808382E03A
:1002000080930B0108958093C4001092C500E0EC28
:10021000F0E0208122602083E8E0F1E08083918398
:100220000895CF93DF93C8E0D1E0888199810E943F
:1002300003018A810E9476008D810E9464008E8174
:100240009F810E94CA008B810E94F2008C810E94D3
:100250006D00DF91CF9108958093C600E0ECF0E04F
:10026000808186FFFDCF0895CF93DF93DC019C0151
:10027000260F311DC6ECD0E0E0ECF0E005C09D910A
:100280009883908196FFFDCFA217B307C1F7DF9146
:10029000CF910895E0ECF0E080818823ECF7809125
:1002A000C6000895CF93DF932FEF260F662369F0E2
:1002B000A82FB92FE0ECF0E0C6ECD0E080818823D5
:1002C000ECF788818D932150C8F7DF91CF91089585
:1002D0000895089580E0089508959091C0009823AE
:1002E00029F0E0ECF0E09081892B80830895259A35
:1002F0002D9A2FEF81EE94E0215080409040E1F75D
:1003000000C000002D982FEF81EE94E02150804036
:100310009040E1F700C000000895CF93DF93CDB780
:10032000DEB728970FB6F894DEBF0FBECDBF88E0CA
:10033000E0E0F1E0DE01119601900D928A95E1F77F
:100340000E9453000E94110182E090E00E94CA00C6
:1003500081E00E94F2008FEC90E00E94030188E1AE
:100360000E946D008FE891E00197F1F700C0000056
:100370000E9477010E94770168E0CE0101960E94F9
:0C03800052010E947701FFCFF894FFCFDC
:08038C00328767236614989282
:00000001FF
