:100000000C9459000C946E000C946E000C946E00CD
:100010000C946E000C946E000C946E000C946E00A8
:100020000C946E000C946E000C946E000C946E0098
:100030000C946E000C946E000C946E000C946E0088
:100040000C946E000C946E000C946E000C946E0078
:100050000C946E000C946E000C946E000C946E0068
:100060000C946E000C946E0016051D0524052E05DB
:100070003805420549050F0180961180FFB1030143
:100080002C2DB203012C2DB306012C2D012C2DB4E7
:100090000107C003A20284C101C5C2020A00C30253
:1000A0008A2AC4028AEEC5010E20003601C03A0138
:1000B000050011241FBECFEFD8E0DEBFCDBF11E099
:1000C000A0E0B1E0E0EEF4E102C005900D92AC31A9
:1000D000B107D9F70E94C5010C946E0A0C94000078
:1000E000613191F06231E9F0603161F544B121E0B4
:1000F00030E0B90102C0660F771F8A95E2F7CB01A5
:100100008095842384B9089544B121E030E0B90199
:1001100002C0660F771F8A95E2F7CB01842B84B962
:10012000089544B121E030E0B90102C0660F771FA5
:100130008A95E2F7CB018095982F942394B995B1D5
:10014000892B85B90895613191F06231E9F0603110
:1001500061F547B121E030E0B90102C0660F771FB9
:100160008A95E2F7CB018095842387B9089547B13A
:1001700021E030E0B90102C0660F771F8A95E2F7EF
:10018000CB01842B87B9089547B121E030E0B90154
:1001900002C0660F771F8A95E2F7CB018095982FF2
:1001A000942397B998B1892B88B90895613191F05A
:1001B0006231E9F0603161F54AB121E030E0B90126
:1001C00002C0660F771F8A95E2F7CB0180958423E2
:1001D0008AB908954AB121E030E0B90102C0660F42
:1001E000771F8A95E2F7CB01842B8AB908954AB12B
:1001F00021E030E0B90102C0660F771F8A95E2F76F
:10020000CB018095982F94239AB99BB1892B8BB9F8
:100210000895883018F40E9470000895803120F409
:1002200087700E94A3000895883118F487700E9497
:10023000D60008958830A0F443B121E030E0082EC4
:1002400002C0220F331F0A94E2F750E02423352323
:10025000A90102C0559547958A95E2F7CA0108950C
:100260008031B0F446B1982F977021E030E002C0A1
:10027000220F331F9A95E2F750E024233523A9017A
:1002800002C0559547958A95E2F7CA01877008958F
:10029000883198F449B1982F977021E030E002C07E
:1002A000220F331F9A95E2F750E024233523220FC3
:1002B000232F221F330B8223089580E00895883076
:1002C000D8F4662361F045B121E030E0B90102C005
:1002D000660F771F8A95E2F7CB01842B0BC095B18F
:1002E00021E030E002C0220F331F8A95E2F7822F0F
:1002F0008095892385B908958031E8F4662369F0F3
:1003000048B1877021E030E0B90102C0660F771F65
:100310008A95E2F7CB01842B0CC098B1877021E05D
:1003200030E002C0220F331F8A95E2F7822F8095BA
:10033000892388B908958831E0F4662369F04BB1C8
:10034000877021E030E0B90102C0660F771F8A95FF
:10035000E2F7CB01842B0CC09BB1877021E030E029
:1003600002C0220F331F8A95E2F7822F80958923DE
:100370008BB90895009741F0EFE9FFE03197F1F76D
:1003800000C000000197C1F70895CF93DF93CDB768
:10039000DEB76E970FB6F894DEBF0FBECDBFCE01AD
:1003A00001960E94000560E070E0CE0101960E9477
:1003B0000D05CE0101960E94B80562E0CE010196BE
:1003C0000E94E205082F20E041E0BE016F5F7F4FF1
:1003D000CE0144960E9465028CB580648CBDCE012E
:1003E00044960E948702CE0144960E944803689476
:1003F000EE24E3F8F12C0FE110E025E030E048E0D6
:1004000050E0B701CE0144960E94130A80E1E80E45
:10041000F11C88E8E816F10471F70F2EF8E7EF2ECB
:10042000F12CF02D6894AA24A3F8B12CCA2CDB2C53
:100430000FE110E025E030E04A2D5B2DB701CE0141
:1004400044960E94130A0FEF1FEF22E030E04A2D7E
:100450005B2DB601CE0144960E94130A80E1E80E9E
:10046000F11C80E8E816F10414F0EA2CFB2C88E17A
:1004700090E00E94BA0180E1C80ED11C88E8C8163D
:10048000D104B1F6D3CF0F931F93CF93DF93EC0139
:10049000162F072F40E06A858E819F810E942806D3
:1004A000602F8E819F810E943C06612F8E819F81EB
:1004B0000E943C0641E06A858E819F810E94280649
:1004C000DF91CF911F910F910895CF92DF92FF920C
:1004D0000F931F93CF93DF93EC016B01F42E122F38
:1004E00040EA50E060E870E00E948C0684E091E011
:1004F00099838883DF82CE82F88619870A87DF9105
:10050000CF911F910F91FF90DF90CF900895CF93DF
:10051000DF93EC0161E188850E94090161E1898531
:100520000E94090161E089850E945F0160E0888581
:100530000E945F018FE99FE00197F1F700C0000082
:1005400061E088850E945F019FEF23EC89E0915074
:1005500020408040E1F700C00000DF91CF91089576
:100560001F93CF93DF93EC01162F40E06A858E81B5
:100570009F810E942806612F8E819F810E943C06E8
:1005800041E06A858E819F810E942806DF91CF918C
:100590001F9108951F93CF93DF93EC01162F60E016
:1005A00089850E945F0140E06A858E819F810E945B
:1005B0002806612F8E819F810E943C0641E06A855A
:1005C0008E819F810E94280661E089850E945F01DB
:1005D000DF91CF911F9108958F929F92AF92BF921A
:1005E000CF92DF92EF92FF920F931F93CF93DF93FF
:1005F0007C018B010F5F1F4FFB01B4900F2EF4EFB6
:100600009F2EF02DAA24A39434C0F8016491C70151
:100610000E94CA02F8013196E4910E5F1F4FFE2F2F
:10062000F0788F2EEF778FEF8E0FEE2391F0302F33
:10063000212F90E00196080F191F6801C32FD22FB8
:10064000FE016491C7010E94B0022196CC15DD0520
:10065000B9F7882069F0E8012196F801849190E0CB
:100660008F3F910511F4892D9A2D0E94BA018E01B8
:10067000BA94B110CACFDF91CF911F910F91FF9023
:10068000EF90DF90CF90BF90AF909F908F900895A4
:10069000CF93DF93EC0166E770E00E94EC0260E02C
:1006A00070E0CE010E944A0A69E2CE010E94CA02AD
:1006B000DF91CF910895EF92FF920F931F93CF9305
:1006C000DF93EC01E62E142FF22E6AE20E94CA029A
:1006D00060E0CE010E94B0026E2DCE010E94B002F9
:1006E00060E0CE010E94B0026F2DCE010E94B002E8
:1006F0006BE2CE010E94CA0260E0CE010E94B0020D
:10070000612FCE010E94B00260E0CE010E94B002D3
:10071000602FCE010E94B0026CE2CE010E94CA029C
:10072000DF91CF911F910F91FF90EF9008958F92DD
:100730009F92AF92BF92CF92DF92EF92FF920F9370
:100740001F93CF93DF936C015901E8016038710565
:100750000CF051C0403A51050CF04DC0CB01820F56
:10076000931F01978038910528F080E890E05C01A4
:10077000A61AB70ACA018C0F9D1F0197803A9105EE
:1007800020F0C0EAD0E0C41BD50B0FEF040F0C0F14
:100790002FEF260F2A0DC6010E945B0340E0F601F1
:1007A0006285868197810E9428061C161D06ACF082
:1007B0001BC0C82DD92D6F2DF601868197810E940F
:1007C0003C066E2DF601868197810E943C0621979A
:1007D00091F70150110921F407C08E018A2C9B2C3E
:1007E0001A141B0434F3F5CF41E0F60162858681CB
:1007F00097810E942806DF91CF911F910F91FF9062
:10080000EF90DF90CF90BF90AF909F908F90089522
:10081000DF92EF92FF920F931F93CF93DF937C01B0
:10082000E901D02EFC018281938168177907ECF5EC
:100830008481958148175907C4F57723B4F155236E
:1008400014F440E050E09E01240F351F215031097F
:10085000281739071CF0EC01C41BD50B0FEF040F50
:100860000C0F262FC7010E945B030D2D40E0F701FE
:100870006285868197810E9428061C161D0674F4E5
:10088000612FF701868197810E943C06602FF70156
:10089000868197810E943C06219791F741E0F701FC
:1008A0006285868197810E942806DF91CF911F91F2
:1008B0000F91FF90EF90DF900895DF92EF92FF92FB
:1008C0000F931F93CF93DF937C01E901D02E603803
:1008D0007105CCF5403A5105B0F5772314F460E08A
:1008E00070E0CE01860F971F01978038910520F0A8
:1008F000C0E8D0E0C61BD70B2FEF260F2C0F042F1C
:10090000C7010E945B030D2D40E0F70162858681DF
:1009100097810E9428061C161D0674F4612FF701AA
:10092000868197810E943C06602FF701868197811E
:100930000E943C06219791F741E0F701628586818C
:1009400097810E942806DF91CF911F910F91FF9010
:10095000EF90DF900895EF92FF920F93CF93DF9384
:10096000EC0179016038710588F4403A510570F462
:1009700001E0040F21E0260F0E945B03E881F9816A
:100980000680F781E02DB701CE010995DF91CF9167
:100990000F91FF90EF9008950F93DC016C931196E7
:1009A0004C93119712962C93129713960C931397BE
:1009B0001E961C921E921D9750961C921E921F9777
:1009C00081E090E052969C938E93519714961C92DE
:1009D0001497FD0135961D9688E18193EA17FB0770
:1009E000E1F70F9108950F93CF93DF93EC0108E1A6
:1009F0000E94CC04188A1F86DF91CF910F91089531
:100A0000CF93DF93EC0124E043E065E00E94F30420
:100A1000188A1F86DF91CF9108956730710508F01D
:100A20003FC0FB01EC5CFF4F0C94680A2DB52160C0
:100A30002DBD2CB52C7F2CBD39C02DB52E7F2DBDE5
:100A40002CB52C7F2CBD32C02DB521602DBD2CB511
:100A500021602CBD2CB52D7F2CBD28C02DB52E7F3F
:100A60002DBD2CB521602CBD2CB52D7F2CBD1EC0FD
:100A70002DB521602DBD2CB52E7F2CBD2CB522604F
:100A80002CBD14C02DB521602DBD2CB523602CBD0F
:100A90000DC02DB52E7F2DBD2CB523602CBD06C0FD
:100AA0002DB52E7F2DBD2CB52C7F2CBDFC01728B5E
:100AB000618B08956130710581F024F46115710531
:100AC00041F01DC06230710579F06330710599F015
:100AD00016C02CB5237F2CBD15C02CB5277F2CBD8F
:100AE0002CB524602CBD0EC02CB528602CBD2CB5B7
:100AF0002B7F2CBD07C02CB52C602CBD03C02CB5A2
:100B0000237F2CBDFC017687658708950F931F9383
:100B1000CF93DF93EC018B01672B81F48CB580615F
:100B20008CBD60E18A810E94090161E189810E9496
:100B3000090161E188810E94090113C08CB58F7E93
:100B40008CBD61E18A810E94090160E189810E9476
:100B5000090160E188810E94090160E18B810E94A6
:100B60000901188B0F87DF91CF911F910F91089585
:100B70001F93CF93DF93EC011FB76F8578890E9495
:100B800086058F859889892B29F469897A89CE0110
:100B90000E940D056D857E85CE010E945A058CB59B
:100BA0008F7D8CBD8CB58F778CBD1FBFDF91CF91B2
:100BB0001F9108958DB5807808950DB407FC8EB50A
:100BC00080E008951F93CF93DF93DC0114969C91EE
:100BD0001497292F30E0A901485F5F4F241735078C
:100BE00054F5292F2770FD01E20FF11D8581883111
:100BF000D1F408C0292F2770FD01E20FF11D3581C6
:100C0000383189F4162FED012C83FD01E20FF11D1F
:100C1000658361E1812F0E94090161E0812F0E94BB
:100C20005F018C8109C09F5F292F30E024173507B1
:100C30000CF388E001C088E0DF91CF911F91089507
:100C4000683028F4FC01E60FF11D28E125830895A2
:100C5000860F911DFC018581883161F0413029F4B6
:100C600061E00E945F0181E0089560E00E945F0101
:100C700081E008958FEF08956EBD00000DB407FE6A
:100C8000FDCF8EB508950CB405FC0DC09EBD0000CF
:100C90000DB407FEFDCF9EB58EBD00000DB407FE5E
:100CA000FDCF8EB508958EBD00000DB407FEFDCFBB
:100CB0008EB59EBD00000DB407FEFDCF9EB5089514
:100CC00041155105E9F0FB0180818EBD9A0121504B
:100CD000310981F03196DB01460F571F91910DB418
:100CE00007FEFDCF8EB59EBD8D93E417F507B1F7D6
:100CF000620F731F0DB407FEFDCF8EB5FB0180831D
:100D000008950895089508950895089599231CF469
:100D10009195819591090895FC0182E191E091837B
:100D2000808373836283558344830895DC01ED914E
:100D3000FC910480F581E02D099508952F923F9252
:100D40004F925F926F927F928F929F92AF92BF92DB
:100D5000CF92DF92EF92FF920F931F93CF93DF9387
:100D600000D000D0CDB7DEB75C017C836B836A0115
:100D70004901FA82E982C801841B950B9C0122F487
:100D800022273327281B390BA4018B819C81481B08
:100D9000590BCA01992324F488279927841B950BA2
:100DA00051E040E0821793070CF050E0652E742E5E
:100DB0006114710459F0982D892D4801092F182FBD
:100DC0009B818C81DC82CB82C92ED82EAB81BC81E9
:100DD0008A169B060CF045C09C2D8D2D6801092FAD
:100DE000182F9B818C819C828B82892E982E39C0F2
:100DF000EB81FC818E169F060CF44EC00FEF1FEFA7
:100E000002C001E010E06114710471F0D501ED91B0
:100E1000FC910480F581E02D29813A814B815C8130
:100E2000B601C50109950DC0D501ED91FC91048075
:100E3000F581E02D29813A81A6016B817C81C50174
:100E40000995E418F50822F4C00ED11EE20CF31C3B
:100E5000EB81FC813196FC83EB838E169F069CF61A
:100E60001BC014018B819C81281A390AC8018C1976
:100E70009D092C0122F444245524481A590A710171
:100E800033201CF49FEFE91AF90AF594E794C01691
:100E9000D1060CF4B6CFACCF0F900F900F900F90FF
:100EA000DF91CF911F910F91FF90EF90DF90CF9046
:100EB000BF90AF909F908F907F906F905F904F907A
:100EC0003F902F900895EF92FF920F931F93621718
:100ED0007307B1F4041715072CF4342F252FA8013C
:100EE000032F122FDC01ED91FC919801241B350B8F
:100EF0002F5F3F4F0190F081E02D870109951AC0C7
:100F000040175107A9F4261737072CF4F62FE72FBF
:100F1000B9012F2F3E2FDC01ED91FC91261B370BE1
:100F20002F5F3F4F0280F381E02D8701099502C0BA
:100F30000E949E061F910F91FF90EF9008956F926F
:100F40007F928F929F92AF92BF92CF92DF92EF9259
:100F5000FF920F931F93CF93DF93EC015B014A0144
:100F600039016801E881F9810190F081E02D870164
:100F700096010995E881F981B501660D771D01900B
:100F8000F081E02D9601A401CE010995E881F98157
:100F90000280F381E02D9301A401B501CE010995F2
:100FA000E881F981A4014C0D5D1D0280F381E02DE3
:100FB0009301B501CE010995DF91CF911F910F915A
:100FC000FF90EF90DF90CF90BF90AF909F908F9069
:100FD0007F906F900895EF92FF920F931F93DC0123
:100FE000ED91FC910084F185E02D09951F910F9101
:100FF000FF90EF9008952F923F924F925F926F92E1
:101000007F928F929F92AF92BF92CF92DF92EF9298
:10101000FF920F931F93CF93DF93CDB7DEB72A973D
:101020000FB6F894DEBF0FBECDBF3C011B012A01F5
:1010300079011C830B8381E090E06C01C21AD30A12
:1010400088279927821B930B9C01220F331F3E8315
:101050002D83D301ED91FC914E0D5F1D0480F58130
:10106000E02D9801C3010995D301ED91FC91A201F6
:101070004E195F090480F581E02D2B813C81B1017F
:10108000C3010995D301ED91FC91B1016E0D7F1D56
:101090000480F581E02D2B813C81A201C3010995DB
:1010A000D301ED91FC91B1016E197F090480F581A6
:1010B000E02D2B813C81A201C30109951E141F0460
:1010C0000CF0B2C001E010E0AA24A394B12C7A86FF
:1010D00069863601772054F0B1E0EB1AF108ED8112
:1010E000FE813296FE83ED836E0E7F1E18870F837E
:1010F000F2E0AF0EB11C6A0C7B1C4801820C931C01
:10110000A985BA85ED91FC9111970480F581E02DB8
:101110002B813C816201CE0CDF1CA601B401CD0104
:101120000995F101E01BF10BFA83E983A985BA85E2
:10113000ED91FC9111970480F581E02D2B813C818C
:10114000A60169817A81CD010995A985BA85ED91BC
:10115000FC9111970480F581E02D2B813C81620187
:10116000CE18DF08A601B401CD010995A985BA857D
:10117000ED91FC9111970480F581E02D2B813C814C
:10118000A60169817A81CD0109956801C40CD51C3D
:10119000A985BA85ED91FC9111970480F581E02D28
:1011A0002B813C81A601C1018E0D9F1D9A838983ED
:1011B000BC01CD010995A985BA85ED91FC911197E6
:1011C0000480F581E02D2B813C81A6016101CE18C0
:1011D000DF08B601CD0109954201801A910AA9855F
:1011E000BA85ED91FC9111970480F581E02D2B815A
:1011F0003C81A40169817A81CD010995A985BA85CF
:10120000ED91FC9111970480F581E02D2B813C81BB
:10121000A401B601CD0109950F5F1F4FEF81F8853D
:10122000EE15FF050CF456CF2A960FB6F894DEBFE4
:101230000FBECDBFDF91CF911F910F91FF90EF9027
:10124000DF90CF90BF90AF909F908F907F906F90E6
:101250005F904F903F902F9008952F923F924F9222
:101260005F926F927F928F929F92AF92BF92CF9236
:10127000DF92EF92FF920F931F93CF93DF93CDB73F
:10128000DEB72C970FB6F894DEBF0FBECDBF9A83A2
:1012900089834B0158874F835901FA86E986DE829C
:1012A000CD8281E090E07C01E21AF30A6624772483
:1012B000621A730A660C771C121613060CF09AC099
:1012C0002A0181E0481A510829843A8493E0290EC2
:1012D000311CA02FA170DA2E0270E0E0F0E0FC8754
:1012E000EB87C02EFF2044F0F1E0AF1AB10882E096
:1012F000680E711CE60CF71CAB85BC851196BC878B
:10130000AB87BC83AB83CD01880F991F0196E80E94
:10131000F91EDD2071F1A981BA81ED91FC9111973F
:101320009501220F331F2F5F3F4F89859A85280F24
:10133000391F0190F081E02D0D811E814F8158856C
:101340004A195B096B857C85680D791DCD0109956E
:10135000A981BA81ED91FC9111970190F081E02D66
:101360000D811E819101A201B4016A0D7B1DCD0189
:101370000995CC2099F1EB85FC85FF237CF1A981AF
:10138000BA81ED91FC919501220F331F2F5F3F4FE2
:1013900089859A85280F391FB401AB81BC816A1BEE
:1013A0007B0B0190F081E02D0D811E814F815885CE
:1013B0004A195B0989819A810995A981BA81ED91C0
:1013C000FC9111970190F081E02D0D811E8191011A
:1013D000A201B4016A197B09CD010995B1E04B1A4C
:1013E0005108E2E02E0E311C8B859C858A159B05E9
:1013F0000CF478CF2C960FB6F894DEBF0FBECDBF9D
:10140000DF91CF911F910F91FF90EF90DF90CF90E0
:10141000BF90AF909F908F907F906F905F904F9014
:101420003F902F9008956F927F928F929F92AF92EC
:10143000BF92CF92DF92EF92FF920F931F93CF93C1
:10144000DF93EC014B013A0159016801E881F98110
:10145000220F331F2F5F3F4F4A195B090190F08124
:10146000E02D0995E12CF12C03E09501A301B401D5
:10147000CE010E942D09DF91CF911F910F91FF9016
:10148000EF90DF90CF90BF90AF909F908F907F9024
:101490006F900895EF92FF920F931F93DC01ED91EF
:1014A000FC91119714960D911C91159712962D9100
:1014B0003C9113970084F185E02D7B0140E050E0E2
:1014C00060E070E009951F910F91FF90EF900895F3
:1014D000EE0FFF1F0590F491E02D0994F894FFCFD3
:1014E0000000000008045D04AB0443029703000001
:0C14F00000008106820683068406850643
:00000001FF
