:100000000C9434000C943E000C943E000C943E0082
:100010000C943E000C943E000C944C000C943E005A
:100020000C943E000C943E000C943E000C943E0058
:100030000C943E000C943E000C943E000C943E0048
:100040000C943E000C943E000C943E000C943E0038
:100050000C943E000C943E000C943E000C943E0028
:100060000C943E000C943E0011241FBECFEFD8E04C
:10007000DEBFCDBF0E9457000C9473000C940000AB
:100080002D9A2FEF83ED90E3215080409040E1F7CF
:1000900000C000002D9808951F920F920FB60F9286
:1000A0001124A8950F900FBE0F901F901895259AB8
:1000B000E0E6F0E080818861808381E68083808152
:1000C000813611F40E944000789483B7817F846068
:1000D00083BF83B7816083BF889583B78E7F83BFDB
:0A00E0000E944000F2CFF894FFCF19
:00000001FF
