:100000000C943B000C944D000C944D000C944D004E
:100010000C944D000C944D000C944D000C944D002C
:100020000C944D000C944D000C944D000C944D001C
:100030000C944D000C944D000C944D000C944D000C
:100040000C944D000C948A030C944D000C944D00BC
:100050000C944D000C944D000C944D000C944D00EC
:100060000C944D000C944D00D200D900E000EA0041
:10007000F400FE00050111241FBECFEFD8E0DEBF63
:10008000CDBF21E0A0E0B1E001C01D92AB33B207CB
:10009000E1F70E94C4030C94EB030C940000E2EC23
:1000A000F0E080818F73808387E68093C400109294
:1000B000C500A0ECB0E08C9182608C93808186605A
:1000C0008083A1ECB0E08C918B7F8C9380818860E1
:1000D000808380818F7C806280830895E1ECF0E0F2
:1000E0008081886180830895E1ECF0E08081877EE3
:1000F000808308958093C600E0ECF0E0808185FF66
:10010000FDCF0895EF92FF920F931F93CF93DF934C
:100110007C01FC0180810E947A00F70180818823A4
:1001200089F087010E5F1F4FC0E0D0E0F801819198
:100130008F010E947A002196F701208130E0C217DA
:10014000D307A4F3DF91CF911F910F91FF90EF9010
:100150000895E0ECF0E080818823ECF78091C60000
:100160000895E2E1F1E012A211A214A213A216A2D4
:1001700015A281E090E090A787A3108222E331E0EE
:1001800083E090E0928381833496E217F307D1F7FE
:1001900008958730910508F03FC0FC01EC5CFF4FEB
:1001A0000C94E5032DB521602DBD2CB52C7F2CBD05
:1001B00039C02DB52E7F2DBD2CB52C7F2CBD32C066
:1001C0002DB521602DBD2CB521602CBD2CB52D7F0A
:1001D0002CBD28C02DB52E7F2DBD2CB521602CBD8A
:1001E0002CB52D7F2CBD1EC02DB521602DBD2CB58D
:1001F0002E7F2CBD2CB522602CBD14C02DB52160E6
:100200002DBD2CB523602CBD0DC02DB52E7F2DBD71
:100210002CB523602CBD06C02DB52E7F2DBD2CB571
:100220002C7F2CBD90933A01809339010895CF9390
:10023000DF93EC01892B71F48CB580618CBD8091CA
:10024000390190913A010E94C90084B1886284B951
:10025000249807C09CB59F7E9CBD249A94B1937D41
:1002600094B9D0933601C0933501DF91CF910895B1
:100270008130910561F038F08230910579F083305A
:10028000910599F016C02CB5237F2CBD15C02CB557
:10029000277F2CBD2CB524602CBD0EC02CB528604A
:1002A0002CBD2CB52B7F2CBD07C02CB52C602CBDD4
:1002B00003C02CB5237F2CBD909334018093330170
:1002C00008951F93CF93DF931FB7C2E1D1E08BA1B5
:1002D0009CA10E94170189A19AA10E9438018DA1B9
:1002E0009EA1892B21F48CB58F7D8CBD03C08CB56C
:1002F00080628CBD8CB58F778CBD1FBFDF91CF9195
:100300001F910895AC0190911201292F30E0D9017D
:1003100018962A173B070CF06CC0292F2770E22F84
:10032000F0E0EE0FFF1FEE0FFF1FEE5EFE4F0180AD
:10033000F281E02D339731F50FC0292F2770E22F7E
:10034000F0E0EE0FFF1FEE0FFF1FEE5EFE4F01808D
:10035000F281E02D3397B1F420931201E22FF0E007
:10036000EE0FFF1FEE0FFF1FEE5EFE4F5283418325
:100370006383748341305105E1F060F042305105F0
:1003800039F134C09F5F292F30E02A173B07ACF2C8
:1003900088E0089524B181E090E002C0880F991FA1
:1003A0006A95E2F7922F982B94B995B1892B85B96C
:1003B0001DC027B181E090E002C0880F991F6A95A7
:1003C000E2F7922F982B97B998B1892B88B90EC074
:1003D0002AB181E090E002C0880F991F6A95E2F788
:1003E000922F982B9AB99BB1892B8BB980911201CE
:1003F000089588E00895883060F4E82FF0E0EE0F6B
:10040000FF1FEE0FFF1FEE5EFE4F83E090E0928332
:100410008183089590E0FC01EE0FFF1FEE0FFF1F98
:10042000EE5EFE4F218132812330310509F4DDC0BB
:10043000613009F071C0EFECF7E03197F1F700C0DF
:100440000000FC01EE0FFF1FEE0FFF1FEE5EFE4FE0
:10045000218132812130310519F120F0223031051E
:10046000E9F1C5C044B1880F991F880F991FFC019D
:10047000EE5EFE4F21E030E0C901038002C0880F2C
:10048000991F0A94E2F7842B84B985B1038002C0D6
:10049000220F331F0A94E2F7282B25B981E0089533
:1004A00047B1880F991F880F991FFC01EE5EFE4F20
:1004B00021E030E0C901038002C0880F991F0A942F
:1004C000E2F7842B87B988B1038002C0220F331F63
:1004D0000A94E2F7282B28B981E008954AB1880FE1
:1004E000991F880F991FFC01EE5EFE4F21E030E05E
:1004F000C901038002C0880F991F0A94E2F7842B78
:100500008AB98BB1038002C0220F331F0A94E2F72D
:10051000282B2BB981E008952130310519F120F005
:1005200022303105E9F159C044B1880F991F880F75
:10053000991FFC01EE5EFE4F21E030E0C90103800F
:1005400002C0880F991F0A94E2F7842B84B985B101
:10055000038002C0220F331F0A94E2F7209528235C
:1005600025B93BC047B1880F991F880F991FFC011F
:10057000EE5EFE4F21E030E0C901038002C0880F2B
:10058000991F0A94E2F7842B87B988B1038002C0CF
:10059000220F331F0A94E2F72095282328B91DC0A3
:1005A0004AB1880F991F880F991FFC01EE5EFE4F1C
:1005B00081E090E09C01038002C0220F331F0A9467
:1005C000E2F7242B2AB92BB1038002C0880F991FB0
:1005D0000A94E2F7809582238BB98FEC97E001971C
:1005E000F1F700C0000081E008958FEF089581E0E9
:1005F00008950DB407FC8EB580E008958DB5807820
:100600000895FF920F931F93CF93DF93F82E8B01E2
:10061000EA01209729F160E00E940A02F801808136
:100620008EBD219799F0D80111969E018AE68A9590
:10063000F1F700C05D910DB407FEFDCF9EB55EBD24
:1006400091932150310991F70C0F1D1F0DB407FE36
:10065000FDCF8EB5F801808361E08F2D0E940A02E4
:10066000DF91CF911F910F91FF900895CF93DF936A
:10067000C82FD62F60E00E940A02DEBD00000DB434
:1006800007FEFDCFDEB561E08C2F0E940A028D2FA0
:10069000DF91CF9108951F93CF93DF93611571057B
:1006A000F1F0EB01182F60E00E940A029881992373
:1006B00079F0FE0131969EBD8AE68A95F1F700C079
:1006C0000DB407FEFDCFCEB591919111F4CF01C0CD
:1006D000C0E061E0812F0E940A028C2F01C080E0FF
:1006E000DF91CF911F910895389A409A2FEF81EEB4
:1006F00094E0215080409040E1F700C00000409815
:100700002FEF83EC99E0215080409040E1F700C04A
:10071000000008951F920F920FB60F9211242F938D
:100720003F934F935F936F937F938F939F93AF9379
:10073000BF93EF93FF939EB59A3069F080910001CB
:10074000803148F4E82FF0E0E050FF4F92838F5F54
:100750008093000108C080E091E00E948200E0E008
:10076000F1E010821182FF91EF91BF91AF919F91C3
:100770008F917F916F915F914F913F912F910F904A
:100780000FBE0F901F901895E0E0F1E010821182EB
:100790000E944F00E1ECF0E080818F7780830E941F
:1007A0006E000E94B10081E090E09093360180934A
:1007B00035010E9461018CB580688CBD8CB5806468
:1007C0008CBD78940E947403FFCFEE0FFF1F05903D
:0A07D000F491E02D0994F894FFCF96
:00000001FF
