:100000000C943B000C9458000C9458000C9458002D
:100010000C9458000C9458000C9458000C94580000
:100020000C9458000C9458000C9458000C945800F0
:100030000C9458000C9458000C9458000C945800E0
:100040000C9458000C9458000C9458000C945800D0
:100050000C9458000C9458000C9458000C945800C0
:100060000C9458000C945800A700AE00B500BF00D7
:10007000C900D300DA0011241FBECFEFD8E0DEBFE5
:10008000CDBF11E0A0E0B1E0E2EAF6E002C00590E9
:100090000D92A830B107D9F721E0A8E0B1E001C086
:1000A0001D92A133B207E1F70E946A000C944F033E
:1000B0000C940000389A409A8FE19EE40197F1F782
:1000C00000C0000040988FE39CE90197F1F700C061
:1000D000000008950E9486000E94360162E070E0F0
:1000E00080E090E00E945701C82F8CB580648CBDE1
:1000F0000E945A0060E071E08C2F0E9420038FEF75
:100100009CE70197F1F700C00000F2CFE8E0F1E0D2
:1001100012A211A214A213A216A215A281E090E0CD
:1001200090A787A3108228E231E083E090E09283D9
:1001300081833496E217F307D1F70895873091054C
:1001400008F03FC0FC01EC5CFF4F0C9449032DB557
:1001500021602DBD2CB52C7F2CBD39C02DB52E7F37
:100160002DBD2CB52C7F2CBD32C02DB521602DBDF1
:100170002CB521602CBD2CB52D7F2CBD28C02DB5F4
:100180002E7F2DBD2CB521602CBD2CB52D7F2CBD17
:100190001EC02DB521602DBD2CB52E7F2CBD2CB5DC
:1001A00022602CBD14C02DB521602DBD2CB523605F
:1001B0002CBD0DC02DB52E7F2DBD2CB523602CBDC3
:1001C00006C02DB52E7F2DBD2CB52C7F2CBD909358
:1001D000300180932F010895CF93DF93EC01892B99
:1001E00071F48CB580618CBD80912F0190913001AC
:1001F0000E949E0084B1886284B9249807C09CB58F
:100200009F7E9CBD249A94B1937D94B9D0932C0188
:10021000C0932B01DF91CF9108958130910561F05A
:1002200038F08230910579F08330910599F016C04D
:100230002CB5237F2CBD15C02CB5277F2CBD2CB52C
:1002400024602CBD0EC02CB528602CBD2CB52B7F96
:100250002CBD07C02CB52C602CBD03C02CB5237F52
:100260002CBD90932A018093290108951F93CF9369
:10027000DF931FB7C8E0D1E08BA19CA10E94EC00E6
:1002800089A19AA10E940D018DA19EA1892B21F423
:100290008CB58F7D8CBD03C08CB580628CBD8CB558
:1002A0008F778CBD1FBFDF91CF911F910895AC0157
:1002B00090910801292F30E0D90118962A173B07A1
:1002C0000CF06CC0292F2770E22FF0E0EE0FFF1F1B
:1002D000EE0FFF1FE85FFE4F0180F281E02D3397A4
:1002E00031F50FC0292F2770E22FF0E0EE0FFF1F2E
:1002F000EE0FFF1FE85FFE4F0180F281E02D339784
:10030000B1F420930801E22FF0E0EE0FFF1FEE0F93
:10031000FF1FE85FFE4F5283418363837483413044
:100320005105E1F060F04230510539F134C09F5F72
:10033000292F30E02A173B07ACF288E0089524B15A
:1003400081E090E002C0880F991F6A95E2F7922F32
:10035000982B94B995B1892B85B91DC027B181E03F
:1003600090E002C0880F991F6A95E2F7922F982BB0
:1003700097B998B1892B88B90EC02AB181E090E075
:1003800002C0880F991F6A95E2F7922F982B9AB9AD
:100390009BB1892B8BB980910801089588E008955D
:1003A000883060F4E82FF0E0EE0FFF1FEE0FFF1F24
:1003B000E85FFE4F83E090E092838183089590E0B0
:1003C000FC01EE0FFF1FEE0FFF1FE85FFE4F2181C4
:1003D00032812330310509F4DDC0613009F071C08C
:1003E000EFECF7E03197F1F700C00000FC01EE0FF1
:1003F000FF1FEE0FFF1FE85FFE4F2181328121308A
:10040000310519F120F022303105E9F1C5C044B1C0
:10041000880F991F880F991FFC01E85FFE4F21E0AC
:1004200030E0C901038002C0880F991F0A94E2F7E7
:10043000842B84B985B1038002C0220F331F0A9434
:10044000E2F7282B25B981E0089547B1880F991F5D
:10045000880F991FFC01E85FFE4F21E030E0C901E1
:10046000038002C0880F991F0A94E2F7842B87B992
:1004700088B1038002C0220F331F0A94E2F7282BB1
:1004800028B981E008954AB1880F991F880F991FF4
:10049000FC01E85FFE4F21E030E0C901038002C0AB
:1004A000880F991F0A94E2F7842B8AB98BB10380D5
:1004B00002C0220F331F0A94E2F7282B2BB981E0E8
:1004C00008952130310519F120F022303105E9F18C
:1004D00059C044B1880F991F880F991FFC01E85F2C
:1004E000FE4F21E030E0C901038002C0880F991F50
:1004F0000A94E2F7842B84B985B1038002C0220FED
:10050000331F0A94E2F72095282325B93BC047B151
:10051000880F991F880F991FFC01E85FFE4F21E0AB
:1005200030E0C901038002C0880F991F0A94E2F7E6
:10053000842B87B988B1038002C0220F331F0A942D
:10054000E2F72095282328B91DC04AB1880F991FCA
:10055000880F991FFC01E85FFE4F81E090E09C014D
:10056000038002C0220F331F0A94E2F7242B2AB91A
:100570002BB1038002C0880F991F0A94E2F780957F
:1005800082238BB98FEC97E00197F1F700C0000050
:1005900081E008958FEF089581E008950DB407FC80
:1005A0008EB580E008958DB580780895FF920F9301
:1005B0001F93CF93DF93F82E8B01EA01209729F147
:1005C00060E00E94DF01F80180818EBD219799F0E3
:1005D000D80111969E018AE68A95F1F700C05D91D7
:1005E0000DB407FEFDCF9EB55EBD9193215031093C
:1005F00091F70C0F1D1F0DB407FEFDCF8EB5F8014E
:10060000808361E08F2D0E94DF01DF91CF911F91E8
:100610000F91FF900895CF93DF93C82FD62F60E0FE
:100620000E94DF01DEBD00000DB407FEFDCFDEB588
:1006300061E08C2F0E94DF018D2FDF91CF91089513
:100640001F93CF93DF9361157105F1F0EB01182F24
:1006500060E00E94DF019881992379F0FE013196D4
:100660009EBD8AE68A95F1F700C00DB407FEFDCF66
:10067000CEB591919111F4CF01C0C0E061E0812F1E
:100680000E94DF018C2F01C080E0DF91CF911F918C
:100690000895EE0FFF1F0590F491E02D0994F89452
:0206A000FFCF8A
:0806A20048656C6C6F0A000052
:00000001FF
