:100000000C9434000C9451000C9451000C94510049
:100010000C9451000C9451000C9451000C9451001C
:100020000C9451000C9451000C9451000C9451000C
:100030000C9451000C9451000C9451000C945100FC
:100040000C9451000C9451000C9451000C945100EC
:100050000C9451000C9451000C9451000C945100DC
:100060000C9451000C94510011241FBECFEFD8E026
:10007000DEBFCDBF11E0A0E0B1E0EAEAF5E002C0EA
:1000800005900D92AE30B107D9F721E0AEE0B1E0B6
:1000900001C01D92A231B207E1F70E9452010C94F7
:1000A000D3020C94000018B81BB8E7ECF0E03197CD
:1000B000F1F700C00000982F907F9BB98F7088B92E
:1000C00087EC90E00197F1F700C000005B9AE7EC45
:1000D000F0E03197F1F700C000005B9887EC90E00A
:1000E0000197F1F700C0000018B81BB8E7ECF0E08A
:1000F0003197F1F700C00000089588EF8AB91BB866
:100100008FE387B918B888E30E9453002FEF8FE17F
:1001100093E0215080409040E1F700C0000088E368
:100120000E9453002FEF80E792E0215080409040E2
:10013000E1F700C0000088E30E9453002FEF89EF31
:1001400090E0215080409040E1F700C000008CE03A
:100150000E9453002FEF89EF90E0215080409040A3
:10016000E1F700C0000081E00E9453002FEF81EE14
:1001700094E0215080409040E1F700C000000895D5
:1001800081E00E9453008FE39CE90197F1F700C0E2
:100190000000089590E198B91BB8E7ECF0E03197C2
:1001A000F1F700C000009BB1282F207F922B9BB954
:1001B00098B18F70892B88B987EC90E00197F1F79F
:1001C00000C00000449A5B9AE7ECF0E03197F1F749
:1001D00000C000005B9887EC90E00197F1F700C049
:1001E0000000449AE7ECF0E03197F1F700C000001E
:1001F0000895EF92FF920F931F93CF93DF937C01AB
:10020000C62F413031F480E80E9453008701D0E0CE
:1002100004C04230D9F780ECF7CFC8018E199F098E
:100220008C179D0734F4F80181918F010E94CA0058
:10023000F4CFDF91CF911F910F91FF90EF90089530
:100240000F931F93CF93DF93182F843620F48A30B7
:1002500020F401E003C003E001C002E0C02FD0E0C1
:10026000CE0101960E94A601AC01FC01EC0FFD1F1E
:100270008CE580839E0121503109AAE0FA01E20F4A
:10028000F31F812F6A2F0E949A01905D9083182F8F
:100290002150310998F7BA01802FDF91CF911F913A
:1002A0000F9108950E947D0042E067E086E091E0B2
:1002B0000E94F9002FEF83ED90E3215080409040A1
:1002C000E1F700C000000E94C00084E60E94200107
:1002D000262F42E0682F822F972F0E94F9002FEFE0
:1002E00083ED90E3215080409040E1F700C0000092
:1002F0000E94C00083E60E942001262F42E0682F62
:10030000822F972F0E94F9002FEF83ED90E3215069
:1003100080409040E1F700C000000E94C00083E0F0
:100320000E942001262F42E0682F822F972F0E94E3
:10033000F900FFCF991B79E004C0991F961708F0C8
:10034000961B881F7A95C9F780950895CF93DF9300
:100350008230910510F482E090E0E0911001F0917C
:10036000110120E030E0C0E0D0E0309711F1408191
:10037000518148175907C0F04817590761F4828125
:100380009381209719F09B838A832BC0909311014E
:100390008093100126C02115310519F0421753072B
:1003A00018F49A01BE01DF01EF010280F381E02D14
:1003B000DCCF2115310509F1281B390B243031051B
:1003C00090F412968D919C9113976115710521F00F
:1003D000FB019383828304C09093110180931001E9
:1003E000FD01329644C0FD01E20FF31F819391930A
:1003F000225031092D933C933AC020910E01309147
:100400000F01232B41F4209102013091030130931D
:100410000F0120930E01209100013091010121155F
:10042000310541F42DB73EB74091040150910501CB
:10043000241B350BE0910E01F0910F01E217F30739
:10044000A0F42E1B3F0B2817390778F0AC014E5F44
:100450005F4F2417350748F04E0F5F1F50930F0171
:1004600040930E018193919302C0E0E0F0E0CF0150
:10047000DF91CF9108950F931F93CF93DF93009750
:1004800009F48CC0FC013297138212820091100192
:10049000109111010115110581F420813181820F24
:1004A000931F20910E0130910F012817390779F51C
:1004B000F0930F01E0930E0171C0D80140E050E0CD
:1004C000AE17BF0750F412962D913C911397AD01D2
:1004D0002115310509F1D901F3CF9D01DA013383EB
:1004E000228360817181860F971F8217930769F4B9
:1004F000EC0128813981260F371F2E5F3F4F318352
:1005000020838A819B8193838283452B29F4F093F6
:100510001101E093100142C01396FC93EE931297E1
:10052000ED01499159919E01240F351FE217F30700
:1005300071F480819181840F951F029611969C938E
:100540008E938281938113969C938E931297E0E011
:10055000F0E0D80112968D919C911397009719F0B5
:10056000F8018C01F6CF8D919C9198012E5F3F4F41
:10057000820F931F20910E0130910F012817390728
:1005800069F4309729F4109211011092100102C001
:100590001382128210930F0100930E01DF91CF910D
:0A05A0001F910F910895F894FFCF0A
:0E05AA0000001201200051494E204E414E002B
:00000001FF
