:100000000C943B000C944D000C944D000C944D004E
:100010000C944D000C944D000C944D000C944D002C
:100020000C944D000C944D000C944D000C944D001C
:100030000C944D000C944D000C944D000C944D000C
:100040000C944D000C9465000C944D000C944D00E4
:100050000C944D000C944D000C944D000C944D00EC
:100060000C944D000C944D00E800EF00F6000001E8
:100070000A0114011B0111241FBECFEFD8E0DEBF1F
:10008000CDBF21E0A0E0B1E001C01D92AD32B207CA
:10009000E1F70E948E000C941C040C940000389A26
:1000A000409A2FEF81EE94E0215080409040E1F79C
:1000B00000C0000040982FEF89E698E12150804071
:1000C0009040E1F700C0000008951F920F920FB614
:1000D0000F9211242F933F934F935F936F937F93CE
:1000E0008F939F93AF93BF93EF93FF938EB581311F
:1000F00011F40E944F0082E18EBDFF91EF91BF91FC
:10010000AF919F918F917F916F915F914F913F91AF
:100110002F910F900FBE0F901F9018950E94C30053
:100120000E94A10181E090E00E942D010E944F00F9
:100130002FEF83ED90E3215080409040E1F700C025
:100140000000789480E090E00E944E0180E090E012
:100150000E9493010E944F00FFCF389A409A2FEFE0
:1001600081EE94E0215080409040E1F700C0000013
:1001700040982FEF89E698E1215080409040E1F7C8
:1001800000C000000895E0E0F1E081E090E092839B
:10019000818394A383A316A215A210A617A212A668
:1001A00011A694A783A7108220E231E083E090E0BB
:1001B000948383833496E217F307D1F70895873049
:1001C000910508F03FC0FC01EC5CFF4F0C94160455
:1001D0002DB521602DBD2CB52C7F2CBD39C02DB582
:1001E0002E7F2DBD2CB52C7F2CBD32C02DB52160AE
:1001F0002DBD2CB521602CBD2CB52D7F2CBD28C06C
:100200002DB52E7F2DBD2CB521602CBD2CB52D7F9D
:100210002CBD1EC02DB521602DBD2CB52E7F2CBD53
:100220002CB522602CBD14C02DB521602DBD2CB580
:1002300023602CBD0DC02DB52E7F2DBD2CB52360A8
:100240002CBD06C02DB52E7F2DBD2CB52C7F2CBD11
:1002500090932C0180932B010895CF93DF93EC01B1
:10026000892B71F48CB580618CBD80912B019091AC
:100270002C010E94DF0084B1886284B9249807C0F1
:100280009CB59F7E9CBD249A94B1937D94B9D093E4
:100290002801C0932701DF91CF910895009721F4A1
:1002A0002CB520682CBD03C02CB52F772CBD9093A6
:1002B00024018093230108958130910561F038F085
:1002C0008230910579F08330910599F016C02CB5F4
:1002D000237F2CBD15C02CB5277F2CBD2CB52460E9
:1002E0002CBD0EC02CB528602CBD2CB52B7F2CBD91
:1002F00007C02CB52C602CBD03C02CB5237F2CBDB2
:1003000090932601809325010895009721F42CB540
:100310002F7D2CBD03C02CB520622CBD90932A01EB
:10032000809329010895009721F42CB520642CBDF9
:1003300003C02CB52F7B2CBD90930201809301014B
:100340000895CF93DF93C0E0D1E08FA198A50E94DC
:100350002D018BA19CA10E944E018DA19EA10E9406
:100360005C0189A59AA50E94850189819A810E94D4
:100370009301DF91CF910895AC0190910001292F55
:1003800030E0D90118962A173B070CF06CC0292FD2
:100390002770E22FF0E0EE0FFF1FEE0FFF1FE0507F
:1003A000FF4F0380F481E02D339731F50FC0292FE3
:1003B0002770E22FF0E0EE0FFF1FEE0FFF1FE0505F
:1003C000FF4F0380F481E02D3397B1F420930001B7
:1003D000E22FF0E0EE0FFF1FEE0FFF1FE050FF4F88
:1003E000548343836583768341305105E1F060F0A7
:1003F0004230510539F134C09F5F292F30E02A1770
:100400003B07ACF288E0089524B181E090E002C09F
:10041000880F991F6A95E2F7922F982B94B995B19E
:10042000892B85B91DC027B181E090E002C0880FFB
:10043000991F6A95E2F7922F982B97B998B1892B5B
:1004400088B90EC02AB181E090E002C0880F991FE0
:100450006A95E2F7922F982B9AB99BB1892B8BB9A9
:1004600080910001089588E00895883060F4E82FB5
:10047000F0E0EE0FFF1FEE0FFF1FE050FF4F83E095
:1004800090E094838383089590E0FC01EE0FFF1FBA
:10049000EE0FFF1FE050FF4F2381348123303105E1
:1004A00009F4CBC0613009F062C02130310519F187
:1004B00020F022303105E9F1C2C044B1880F991F04
:1004C000880F991FFC01E050FF4F81E090E09C01F4
:1004D000058002C0220F331F0A94E2F7242B24B9AF
:1004E00025B1058002C0880F991F0A94E2F7822B7C
:1004F00085B981E0089547B1880F991F880F991F2A
:10050000FC01E050FF4F81E090E09C01058002C0BB
:10051000220F331F0A94E2F7242B27B928B1058054
:1005200002C0880F991F0A94E2F7822B88B981E0F4
:1005300008954AB1880F991F880F991FFC01E05058
:10054000FF4F81E090E09C01058002C0220F331F25
:100550000A94E2F7242B2AB92BB1058002C0880F38
:10056000991F0A94E2F7822B8BB981E0089521301C
:10057000310529F128F02230310509F43FC061C06E
:1005800044B1880F991F880F991FFC01E050FF4F5D
:1005900081E090E09C01058002C0220F331F0A9485
:1005A000E2F7242B24B925B1058002C0880F991FDA
:1005B0000A94E2F78095822385B981E0089547B1D6
:1005C000880F991F880F991FFC01E050FF4F81E0B1
:1005D00090E09C01058002C0220F331F0A94E2F7CD
:1005E000242B27B928B1058002C0880F991F0A94CF
:1005F000E2F78095822388B981E008954AB1880F97
:10060000991F880F991FFC01E050FF4F81E090E097
:100610009C01058002C0220F331F0A94E2F7242BAD
:100620002AB92BB1058002C0880F991F0A94E2F7FE
:10063000809582238BB981E008958FEF089581E042
:10064000089581E008950DB407FC8EB580E008950B
:10065000CF93DF93C82FD62F60E00E944402DEBD07
:100660000DB407FEFDCFDEB561E08C2F0E94440281
:100670008D2FDF91CF9108951F93CF93DF93C82FD4
:10068000162FD42F60E00E9444021EBD0DB407FE59
:10069000FDCF8EB5DEBD0DB407FEFDCFDEB561E04A
:1006A0008C2F0E9444028D2FDF91CF911F910895CE
:1006B0000F931F93CF93DF93C82F062F172FD42F9D
:1006C0000E94AD0060E08C2F0E9444029FEF9D0FBE
:1006D000DD2351F0E02FF12F21912EBD0DB407FE47
:1006E000FDCF2EB59150C0F72FEF83ED90E3215051
:1006F00080409040E1F700C0000061E08C2F0E9434
:100700004402DF91CF911F910F910895EF92FF92D4
:100710000F931F93CF93DF93182FE62EEA01F22E4B
:10072000021B60E00E944402EEBC0DB407FEFDCF48
:10073000EEB4FE01AE014F0D511D05C091919EBD5D
:100740000DB407FEFDCFE417F507C1F79FEF04C016
:100750009EBD0DB407FEFDCF0150D0F761E0812FA3
:100760000E9444028E2DDF91CF911F910F91FF9037
:10077000EF9008950F931F93CF93DF93C82F062F09
:10078000172FD42F60E00E9444029FEF9D0FDD23BE
:1007900059F0E02FF12F3FEF3EBD0DB407FEFDCF26
:1007A0002EB521939150C0F761E08C2F0E94440236
:1007B000DF91CF911F910F910895EF92FF920F93C8
:1007C0001F93CF93DF93D82FE62EF42E152FC22F31
:1007D00060E00E944402EEBC0DB407FEFDCF9FEF27
:1007E0009C0FCC2359F0EF2DF12F4FEF4EBD0DB4E0
:1007F00007FEFDCF3EB531939150C0F7091B9FEF27
:1008000004C09EBD0DB407FEFDCF0150D0F761E0DE
:100810008D2F0E9444028C2FDF91CF911F910F9159
:10082000FF90EF9008958DB580780895EE0FFF1F2B
:0C0830000590F491E02D0994F894FFCF9E
:00000001FF
