:100000000C9434000C9458000C943E000C943E0068
:100010000C943E000C943E000C943E000C943E0068
:100020000C943E000C943E000C943E000C943E0058
:100030000C943E000C943E000C943E000C943E0048
:100040000C943E000C943E000C943E000C943E0038
:100050000C943E000C943E000C943E000C943E0028
:100060000C943E000C943E0011241FBECFEFD8E04C
:10007000DEBFCDBF0E9462000C9470000C940000A3
:1000800083B7817F846083BF83B7816083BF889596
:1000900083B78E7F83BF08952D9A2FEF83ED90E372
:1000A000215080409040E1F700C000002D98089555
:1000B0001F920F920FB60F9211240F900FBE0F9048
:1000C0001F901895259A5298E9E6F0E080818C7F80
:1000D0008083E89A78940E9440000E944C00FBCFF5
:0400E000F894FFCFC2
:00000001FF
