:100000000C9434000C9446000C9446000C9446006A
:100010000C9446000C9446000C9446000C94460048
:100020000C9446000C9446000C9446000C94460038
:100030000C9446000C9446000C9446000C94460028
:100040000C9446000C9446000C94AD000C944600B1
:100050000C9446000C9446000C9446000C94460008
:100060000C9446000C94460011241FBECFEFD8E03C
:10007000DEBFCDBF21E0A0E0B1E001C01D92A23102
:10008000B207E1F70E9403010C9419010C940000DF
:10009000E2ECF0E080818F73808387E68093C40078
:1000A0001092C500A0ECB0E08C9182608C938081AE
:1000B00086608083A1ECB0E08C918B7F8C938081F3
:1000C0008860808380818F7C806280838C9180684F
:1000D0008C930895E1ECF0E080818861808308953D
:1000E000E1ECF0E08081877E808308958093C600F4
:1000F000E0ECF0E0808185FFFDCF0895EF92FF9264
:100100000F931F93CF93DF937C01FC0180810E94AA
:100110007600F7018081882389F087010E5F1F4FE9
:10012000C0E0D0E0F80181918F010E947600219615
:10013000F701208130E0C217D307A4F3DF91CF91FC
:100140001F910F91FF90EF900895E0ECF0E0808117
:100150008823ECF78091C60008951F920F920FB686
:100160000F9211242F933F934F935F936F937F933D
:100170008F939F93AF93BF93CF93DF93EF93FF93AF
:100180008091000181110EC08091C600C0E0D1E0D5
:1001900088830E9476008881813190F080E180938D
:1001A00000010EC08091C600C0E0D1E0E981F0E01E
:1001B000E050FF4F82830E94760089818F5F8983A0
:1001C00080910101803120F490910001891740F065
:1001D00080E091E00E947E00E0E0F1E01082118278
:1001E000FF91EF91DF91CF91BF91AF919F918F914F
:1001F0007F916F915F914F913F912F910F900FBE23
:100200000F901F901895E0E0F1E0108211820E949B
:1002100048000E946A007894249A2C9A2FEF80E775
:1002200092E0215080409040E1F700C000002C98FF
:06023000FFCFF894FFCFA0
:00000001FF
